{
  "contractName": "LendingPool",
  "abi": [
    {
      "inputs": [
        {
          "internalType": "address",
          "name": "_eINRToken",
          "type": "address"
        },
        {
          "internalType": "address",
          "name": "_eGoldToken",
          "type": "address"
        },
        {
          "internalType": "address",
          "name": "_lpToken",
          "type": "address"
        }
      ],
      "stateMutability": "nonpayable",
      "type": "constructor"
    },
    {
      "anonymous": false,
      "inputs": [
        {
          "indexed": true,
          "internalType": "address",
          "name": "account",
          "type": "address"
        },
        {
          "indexed": false,
          "internalType": "uint256",
          "name": "amount",
          "type": "uint256"
        },
        {
          "indexed": false,
          "internalType": "uint256",
          "name": "startBorrowTime",
          "type": "uint256"
        }
      ],
      "name": "Borrowedloan",
      "type": "event"
    },
    {
      "anonymous": false,
      "inputs": [
        {
          "indexed": true,
          "internalType": "address",
          "name": "account",
          "type": "address"
        },
        {
          "indexed": false,
          "internalType": "uint256",
          "name": "eINRamount",
          "type": "uint256"
        },
        {
          "indexed": false,
          "internalType": "uint256",
          "name": "startDepositTime",
          "type": "uint256"
        }
      ],
      "name": "Deposited",
      "type": "event"
    },
    {
      "anonymous": false,
      "inputs": [
        {
          "indexed": true,
          "internalType": "address",
          "name": "account",
          "type": "address"
        },
        {
          "indexed": false,
          "internalType": "uint256",
          "name": "amount",
          "type": "uint256"
        }
      ],
      "name": "Repayedloan",
      "type": "event"
    },
    {
      "anonymous": false,
      "inputs": [
        {
          "indexed": true,
          "internalType": "address",
          "name": "account",
          "type": "address"
        },
        {
          "indexed": false,
          "internalType": "uint256",
          "name": "amount",
          "type": "uint256"
        }
      ],
      "name": "Withdrawed",
      "type": "event"
    },
    {
      "inputs": [
        {
          "internalType": "address",
          "name": "",
          "type": "address"
        }
      ],
      "name": "balanceOfEGold",
      "outputs": [
        {
          "internalType": "uint256",
          "name": "",
          "type": "uint256"
        }
      ],
      "stateMutability": "view",
      "type": "function",
      "constant": true
    },
    {
      "inputs": [
        {
          "internalType": "address",
          "name": "",
          "type": "address"
        }
      ],
      "name": "balanceOfEINR",
      "outputs": [
        {
          "internalType": "uint256",
          "name": "",
          "type": "uint256"
        }
      ],
      "stateMutability": "view",
      "type": "function",
      "constant": true
    },
    {
      "inputs": [
        {
          "internalType": "address",
          "name": "",
          "type": "address"
        }
      ],
      "name": "borrowEINRAmount",
      "outputs": [
        {
          "internalType": "uint256",
          "name": "",
          "type": "uint256"
        }
      ],
      "stateMutability": "view",
      "type": "function",
      "constant": true
    },
    {
      "inputs": [
        {
          "internalType": "address",
          "name": "",
          "type": "address"
        }
      ],
      "name": "borrowedTime",
      "outputs": [
        {
          "internalType": "uint256",
          "name": "",
          "type": "uint256"
        }
      ],
      "stateMutability": "view",
      "type": "function",
      "constant": true
    },
    {
      "inputs": [
        {
          "internalType": "address",
          "name": "",
          "type": "address"
        }
      ],
      "name": "depositStartTime",
      "outputs": [
        {
          "internalType": "uint256",
          "name": "",
          "type": "uint256"
        }
      ],
      "stateMutability": "view",
      "type": "function",
      "constant": true
    },
    {
      "inputs": [],
      "name": "eGoldToken",
      "outputs": [
        {
          "internalType": "contract EGoldToken",
          "name": "",
          "type": "address"
        }
      ],
      "stateMutability": "view",
      "type": "function",
      "constant": true
    },
    {
      "inputs": [],
      "name": "eINRToken",
      "outputs": [
        {
          "internalType": "contract EINRToken",
          "name": "",
          "type": "address"
        }
      ],
      "stateMutability": "view",
      "type": "function",
      "constant": true
    },
    {
      "inputs": [],
      "name": "interestRateBorrower",
      "outputs": [
        {
          "internalType": "uint256",
          "name": "",
          "type": "uint256"
        }
      ],
      "stateMutability": "view",
      "type": "function",
      "constant": true
    },
    {
      "inputs": [],
      "name": "interestRateCommission",
      "outputs": [
        {
          "internalType": "uint256",
          "name": "",
          "type": "uint256"
        }
      ],
      "stateMutability": "view",
      "type": "function",
      "constant": true
    },
    {
      "inputs": [],
      "name": "interestRateLender",
      "outputs": [
        {
          "internalType": "uint256",
          "name": "",
          "type": "uint256"
        }
      ],
      "stateMutability": "view",
      "type": "function",
      "constant": true
    },
    {
      "inputs": [],
      "name": "lpToken",
      "outputs": [
        {
          "internalType": "contract LPToken",
          "name": "",
          "type": "address"
        }
      ],
      "stateMutability": "view",
      "type": "function",
      "constant": true
    },
    {
      "inputs": [],
      "name": "totalSupply",
      "outputs": [
        {
          "internalType": "uint256",
          "name": "",
          "type": "uint256"
        }
      ],
      "stateMutability": "view",
      "type": "function",
      "constant": true
    },
    {
      "inputs": [
        {
          "internalType": "address",
          "name": "",
          "type": "address"
        }
      ],
      "name": "usersKYCchecks",
      "outputs": [
        {
          "internalType": "bool",
          "name": "",
          "type": "bool"
        }
      ],
      "stateMutability": "view",
      "type": "function",
      "constant": true
    },
    {
      "inputs": [
        {
          "internalType": "address",
          "name": "account",
          "type": "address"
        },
        {
          "internalType": "uint256",
          "name": "_amount",
          "type": "uint256"
        }
      ],
      "name": "checkKYCForUsers",
      "outputs": [],
      "stateMutability": "nonpayable",
      "type": "function"
    },
    {
      "inputs": [
        {
          "internalType": "uint256",
          "name": "_EINRamount",
          "type": "uint256"
        }
      ],
      "name": "depositeINRToken",
      "outputs": [],
      "stateMutability": "nonpayable",
      "type": "function"
    },
    {
      "inputs": [
        {
          "internalType": "uint256",
          "name": "_EINRamount",
          "type": "uint256"
        }
      ],
      "name": "getAmountWithInterest",
      "outputs": [
        {
          "internalType": "uint256",
          "name": "",
          "type": "uint256"
        }
      ],
      "stateMutability": "view",
      "type": "function",
      "constant": true
    },
    {
      "inputs": [
        {
          "internalType": "uint256",
          "name": "amountToWithdraw",
          "type": "uint256"
        }
      ],
      "name": "withDrawEINRToken",
      "outputs": [],
      "stateMutability": "nonpayable",
      "type": "function"
    },
    {
      "inputs": [
        {
          "internalType": "uint256",
          "name": "_collateralAmount",
          "type": "uint256"
        }
      ],
      "name": "borrowEINRLoan",
      "outputs": [],
      "stateMutability": "nonpayable",
      "type": "function"
    },
    {
      "inputs": [
        {
          "internalType": "uint256",
          "name": "_EINRamount",
          "type": "uint256"
        }
      ],
      "name": "getborrowerRepayAmount",
      "outputs": [
        {
          "internalType": "uint256",
          "name": "",
          "type": "uint256"
        }
      ],
      "stateMutability": "view",
      "type": "function",
      "constant": true
    },
    {
      "inputs": [
        {
          "internalType": "uint256",
          "name": "repayAmount",
          "type": "uint256"
        }
      ],
      "name": "repayEINRLoan",
      "outputs": [],
      "stateMutability": "nonpayable",
      "type": "function"
    },
    {
      "inputs": [],
      "name": "getBalanceEINR",
      "outputs": [
        {
          "internalType": "uint256",
          "name": "",
          "type": "uint256"
        }
      ],
      "stateMutability": "view",
      "type": "function",
      "constant": true
    }
  ],
  "bytecode": "0x6080604052685150ae84a8cdf00000600555683635c9adc5dea000006006556103e860075561032060085560c86009553480156200003c57600080fd5b5060405162002012380380620020128339818101604052810190620000629190620001d8565b336000806101000a81548173ffffffffffffffffffffffffffffffffffffffff021916908373ffffffffffffffffffffffffffffffffffffffff16021790555082600360006101000a81548173ffffffffffffffffffffffffffffffffffffffff021916908373ffffffffffffffffffffffffffffffffffffffff16021790555081600260006101000a81548173ffffffffffffffffffffffffffffffffffffffff021916908373ffffffffffffffffffffffffffffffffffffffff16021790555080600160006101000a81548173ffffffffffffffffffffffffffffffffffffffff021916908373ffffffffffffffffffffffffffffffffffffffff16021790555050505062000234565b600080fd5b600073ffffffffffffffffffffffffffffffffffffffff82169050919050565b6000620001a08262000173565b9050919050565b620001b28162000193565b8114620001be57600080fd5b50565b600081519050620001d281620001a7565b92915050565b600080600060608486031215620001f457620001f36200016e565b5b60006200020486828701620001c1565b93505060206200021786828701620001c1565b92505060406200022a86828701620001c1565b9150509250925092565b611dce80620002446000396000f3fe608060405234801561001057600080fd5b50600436106101375760003560e01c806371f07e5c116100b8578063a1c6502e1161007c578063a1c6502e14610362578063a2af1ac714610380578063a970ca761461039e578063b1653461146103ce578063dcd63b92146103ea578063fd0b26e61461040857610137565b806371f07e5c146102965780637d53dec1146102b4578063850bab7e146102e45780638a76a112146103025780639d06d4131461033257610137565b8063555b7b85116100ff578063555b7b85146101de57806356c76f39146101fa5780635fcbd2851461022a578063641be7f2146102485780637158a3831461027857610137565b80631548ceca1461013c57806318160ddd146101585780631f928133146101765780634d68086b146101925780635534ef01146101ae575b600080fd5b61015660048036038101906101519190611642565b610438565b005b61016061078b565b60405161016d919061167e565b60405180910390f35b610190600480360381019061018b9190611642565b610791565b005b6101ac60048036038101906101a79190611642565b610988565b005b6101c860048036038101906101c391906116f7565b610d4f565b6040516101d5919061167e565b60405180910390f35b6101f860048036038101906101f39190611724565b610d67565b005b610214600480360381019061020f91906116f7565b610e38565b604051610221919061167e565b60405180910390f35b610232610e50565b60405161023f91906117c3565b60405180910390f35b610262600480360381019061025d91906116f7565b610e76565b60405161026f91906117f9565b60405180910390f35b610280610e96565b60405161028d919061167e565b60405180910390f35b61029e610f48565b6040516102ab919061167e565b60405180910390f35b6102ce60048036038101906102c991906116f7565b610f4e565b6040516102db919061167e565b60405180910390f35b6102ec610f66565b6040516102f9919061167e565b60405180910390f35b61031c600480360381019061031791906116f7565b610f6c565b604051610329919061167e565b60405180910390f35b61034c600480360381019061034791906116f7565b610f84565b604051610359919061167e565b60405180910390f35b61036a610f9c565b6040516103779190611835565b60405180910390f35b610388610fc2565b604051610395919061167e565b60405180910390f35b6103b860048036038101906103b39190611642565b610fc8565b6040516103c5919061167e565b60405180910390f35b6103e860048036038101906103e39190611642565b611157565b005b6103f26113f2565b6040516103ff9190611871565b60405180910390f35b610422600480360381019061041d9190611642565b611418565b60405161042f919061167e565b60405180910390f35b6104423382610d67565b6000811180156104fc575080600360009054906101000a900473ffffffffffffffffffffffffffffffffffffffff1673ffffffffffffffffffffffffffffffffffffffff166370a08231336040518263ffffffff1660e01b81526004016104a9919061189b565b60206040518083038186803b1580156104c157600080fd5b505afa1580156104d5573d6000803e3d6000fd5b505050506040513d601f19601f820116820180604052508101906104f991906118cb565b10155b61053b576040517f08c379a000000000000000000000000000000000000000000000000000000000815260040161053290611955565b60405180910390fd5b42600d60003373ffffffffffffffffffffffffffffffffffffffff1673ffffffffffffffffffffffffffffffffffffffff1681526020019081526020016000208190555080600a60003373ffffffffffffffffffffffffffffffffffffffff1673ffffffffffffffffffffffffffffffffffffffff16815260200190815260200160002060008282546105ce91906119a4565b9250508190555080600460008282546105e791906119a4565b92505081905550600360009054906101000a900473ffffffffffffffffffffffffffffffffffffffff1673ffffffffffffffffffffffffffffffffffffffff166323b872dd3330846040518463ffffffff1660e01b815260040161064d939291906119fa565b602060405180830381600087803b15801561066757600080fd5b505af115801561067b573d6000803e3d6000fd5b505050506040513d601f19601f8201168201806040525081019061069f9190611a5d565b503373ffffffffffffffffffffffffffffffffffffffff167f73a19dd210f1a7f902193214c0ee91dd35ee5b4d920cba8d519eca65a7b488ca82426040516106e8929190611a8a565b60405180910390a2600160009054906101000a900473ffffffffffffffffffffffffffffffffffffffff1673ffffffffffffffffffffffffffffffffffffffff166340c10f1933683635c9adc5dea000006040518363ffffffff1660e01b8152600401610756929190611aee565b600060405180830381600087803b15801561077057600080fd5b505af1158015610784573d6000803e3d6000fd5b5050505050565b60045481565b6000600a60003373ffffffffffffffffffffffffffffffffffffffff1673ffffffffffffffffffffffffffffffffffffffff1681526020019081526020016000208190555080600460008282546107e89190611b17565b92505081905550600360009054906101000a900473ffffffffffffffffffffffffffffffffffffffff1673ffffffffffffffffffffffffffffffffffffffff1663a9059cbb33836040518363ffffffff1660e01b815260040161084c929190611b4b565b602060405180830381600087803b15801561086657600080fd5b505af115801561087a573d6000803e3d6000fd5b505050506040513d601f19601f8201168201806040525081019061089e9190611a5d565b503373ffffffffffffffffffffffffffffffffffffffff167f6cca423c6ffc06e62a0acc433965e074b11c28479b0449250ce3ff65ac9e39fe826040516108e5919061167e565b60405180910390a2600160009054906101000a900473ffffffffffffffffffffffffffffffffffffffff1673ffffffffffffffffffffffffffffffffffffffff16639dc29fac33683635c9adc5dea000006040518363ffffffff1660e01b8152600401610953929190611aee565b600060405180830381600087803b15801561096d57600080fd5b505af1158015610981573d6000803e3d6000fd5b5050505050565b80600260009054906101000a900473ffffffffffffffffffffffffffffffffffffffff1673ffffffffffffffffffffffffffffffffffffffff166370a08231336040518263ffffffff1660e01b81526004016109e4919061189b565b60206040518083038186803b1580156109fc57600080fd5b505afa158015610a10573d6000803e3d6000fd5b505050506040513d601f19601f82011682018060405250810190610a3491906118cb565b1015610a75576040517f08c379a0000000000000000000000000000000000000000000000000000000008152600401610a6c90611be6565b60405180910390fd5b42600e60003373ffffffffffffffffffffffffffffffffffffffff1673ffffffffffffffffffffffffffffffffffffffff1681526020019081526020016000208190555080600b60003373ffffffffffffffffffffffffffffffffffffffff1673ffffffffffffffffffffffffffffffffffffffff1681526020019081526020016000206000828254610b0891906119a4565b92505081905550600260009054906101000a900473ffffffffffffffffffffffffffffffffffffffff1673ffffffffffffffffffffffffffffffffffffffff166323b872dd3330846040518463ffffffff1660e01b8152600401610b6e939291906119fa565b602060405180830381600087803b158015610b8857600080fd5b505af1158015610b9c573d6000803e3d6000fd5b505050506040513d601f19601f82011682018060405250810190610bc09190611a5d565b506000600282610bd09190611c35565b9050610bdc3382610d67565b8060046000828254610bee9190611b17565b92505081905550600360009054906101000a900473ffffffffffffffffffffffffffffffffffffffff1673ffffffffffffffffffffffffffffffffffffffff1663a9059cbb33836040518363ffffffff1660e01b8152600401610c52929190611b4b565b602060405180830381600087803b158015610c6c57600080fd5b505af1158015610c80573d6000803e3d6000fd5b505050506040513d601f19601f82011682018060405250810190610ca49190611a5d565b5080600c60003373ffffffffffffffffffffffffffffffffffffffff1673ffffffffffffffffffffffffffffffffffffffff1681526020019081526020016000206000828254610cf491906119a4565b925050819055503373ffffffffffffffffffffffffffffffffffffffff167fd2b239deadbcb4baadbd0bef2a0d20d76becb200e80e43099a538d430b2ea0288242604051610d43929190611a8a565b60405180910390a25050565b600a6020528060005260406000206000915090505481565b60065481118015610d79575060055481115b15610ddb576001600f60008473ffffffffffffffffffffffffffffffffffffffff1673ffffffffffffffffffffffffffffffffffffffff16815260200190815260200160002060006101000a81548160ff021916908315150217905550610e34565b6000600f60008473ffffffffffffffffffffffffffffffffffffffff1673ffffffffffffffffffffffffffffffffffffffff16815260200190815260200160002060006101000a81548160ff0219169083151502179055505b5050565b600b6020528060005260406000206000915090505481565b600160009054906101000a900473ffffffffffffffffffffffffffffffffffffffff1681565b600f6020528060005260406000206000915054906101000a900460ff1681565b6000600360009054906101000a900473ffffffffffffffffffffffffffffffffffffffff1673ffffffffffffffffffffffffffffffffffffffff166370a08231306040518263ffffffff1660e01b8152600401610ef3919061189b565b60206040518083038186803b158015610f0b57600080fd5b505afa158015610f1f573d6000803e3d6000fd5b505050506040513d601f19601f82011682018060405250810190610f4391906118cb565b905090565b60075481565b600c6020528060005260406000206000915090505481565b60085481565b600e6020528060005260406000206000915090505481565b600d6020528060005260406000206000915090505481565b600260009054906101000a900473ffffffffffffffffffffffffffffffffffffffff1681565b60095481565b60008082118015611017575081600a60003373ffffffffffffffffffffffffffffffffffffffff1673ffffffffffffffffffffffffffffffffffffffff16815260200190815260200160002054145b611056576040517f08c379a000000000000000000000000000000000000000000000000000000000815260040161104d90611cb2565b60405180910390fd5b6000603c600d60003373ffffffffffffffffffffffffffffffffffffffff1673ffffffffffffffffffffffffffffffffffffffff16815260200190815260200160002054426110a59190611b17565b6110af9190611c35565b9050600062080520620186a083600854670de0b6b3a7640000886110d39190611c35565b6110dd9190611cd2565b6110e79190611cd2565b6110f19190611cd2565b6110fb9190611c35565b9050600081600a60003373ffffffffffffffffffffffffffffffffffffffff1673ffffffffffffffffffffffffffffffffffffffff1681526020019081526020016000205461114a91906119a4565b9050809350505050919050565b6000600c60003373ffffffffffffffffffffffffffffffffffffffff1673ffffffffffffffffffffffffffffffffffffffff1681526020019081526020016000208190555080600460008282546111ae91906119a4565b92505081905550600360009054906101000a900473ffffffffffffffffffffffffffffffffffffffff1673ffffffffffffffffffffffffffffffffffffffff166323b872dd3330846040518463ffffffff1660e01b8152600401611214939291906119fa565b602060405180830381600087803b15801561122e57600080fd5b505af1158015611242573d6000803e3d6000fd5b505050506040513d601f19601f820116820180604052508101906112669190611a5d565b506000600b60003373ffffffffffffffffffffffffffffffffffffffff1673ffffffffffffffffffffffffffffffffffffffff168152602001908152602001600020549050600260009054906101000a900473ffffffffffffffffffffffffffffffffffffffff1673ffffffffffffffffffffffffffffffffffffffff1663a9059cbb33836040518363ffffffff1660e01b8152600401611308929190611b4b565b602060405180830381600087803b15801561132257600080fd5b505af1158015611336573d6000803e3d6000fd5b505050506040513d601f19601f8201168201806040525081019061135a9190611a5d565b506000600b60003373ffffffffffffffffffffffffffffffffffffffff1673ffffffffffffffffffffffffffffffffffffffff168152602001908152602001600020819055503373ffffffffffffffffffffffffffffffffffffffff167f432f2abeedfc213d8be3c057e2598a48526e403d2da2cfedd0ae185930f3c202836040516113e6919061167e565b60405180910390a25050565b600360009054906101000a900473ffffffffffffffffffffffffffffffffffffffff1681565b600081600360009054906101000a900473ffffffffffffffffffffffffffffffffffffffff1673ffffffffffffffffffffffffffffffffffffffff166370a08231336040518263ffffffff1660e01b8152600401611476919061189b565b60206040518083038186803b15801561148e57600080fd5b505afa1580156114a2573d6000803e3d6000fd5b505050506040513d601f19601f820116820180604052508101906114c691906118cb565b11611506576040517f08c379a00000000000000000000000000000000000000000000000000000000081526004016114fd90611d78565b60405180910390fd5b6000603c600e60003373ffffffffffffffffffffffffffffffffffffffff1673ffffffffffffffffffffffffffffffffffffffff16815260200190815260200160002054426115559190611b17565b61155f9190611c35565b9050600062080520620186a083600754670de0b6b3a7640000886115839190611c35565b61158d9190611cd2565b6115979190611cd2565b6115a19190611cd2565b6115ab9190611c35565b9050600081600c60003373ffffffffffffffffffffffffffffffffffffffff1673ffffffffffffffffffffffffffffffffffffffff168152602001908152602001600020546115fa91906119a4565b9050809350505050919050565b600080fd5b6000819050919050565b61161f8161160c565b811461162a57600080fd5b50565b60008135905061163c81611616565b92915050565b60006020828403121561165857611657611607565b5b60006116668482850161162d565b91505092915050565b6116788161160c565b82525050565b6000602082019050611693600083018461166f565b92915050565b600073ffffffffffffffffffffffffffffffffffffffff82169050919050565b60006116c482611699565b9050919050565b6116d4816116b9565b81146116df57600080fd5b50565b6000813590506116f1816116cb565b92915050565b60006020828403121561170d5761170c611607565b5b600061171b848285016116e2565b91505092915050565b6000806040838503121561173b5761173a611607565b5b6000611749858286016116e2565b925050602061175a8582860161162d565b9150509250929050565b6000819050919050565b600061178961178461177f84611699565b611764565b611699565b9050919050565b600061179b8261176e565b9050919050565b60006117ad82611790565b9050919050565b6117bd816117a2565b82525050565b60006020820190506117d860008301846117b4565b92915050565b60008115159050919050565b6117f3816117de565b82525050565b600060208201905061180e60008301846117ea565b92915050565b600061181f82611790565b9050919050565b61182f81611814565b82525050565b600060208201905061184a6000830184611826565b92915050565b600061185b82611790565b9050919050565b61186b81611850565b82525050565b60006020820190506118866000830184611862565b92915050565b611895816116b9565b82525050565b60006020820190506118b0600083018461188c565b92915050565b6000815190506118c581611616565b92915050565b6000602082840312156118e1576118e0611607565b5b60006118ef848285016118b6565b91505092915050565b600082825260208201905092915050565b7f596f75206861766520696e73756666696369656e742045494e52000000000000600082015250565b600061193f601a836118f8565b915061194a82611909565b602082019050919050565b6000602082019050818103600083015261196e81611932565b9050919050565b7f4e487b7100000000000000000000000000000000000000000000000000000000600052601160045260246000fd5b60006119af8261160c565b91506119ba8361160c565b9250827fffffffffffffffffffffffffffffffffffffffffffffffffffffffffffffffff038211156119ef576119ee611975565b5b828201905092915050565b6000606082019050611a0f600083018661188c565b611a1c602083018561188c565b611a29604083018461166f565b949350505050565b611a3a816117de565b8114611a4557600080fd5b50565b600081519050611a5781611a31565b92915050565b600060208284031215611a7357611a72611607565b5b6000611a8184828501611a48565b91505092915050565b6000604082019050611a9f600083018561166f565b611aac602083018461166f565b9392505050565b6000819050919050565b6000611ad8611ad3611ace84611ab3565b611764565b61160c565b9050919050565b611ae881611abd565b82525050565b6000604082019050611b03600083018561188c565b611b106020830184611adf565b9392505050565b6000611b228261160c565b9150611b2d8361160c565b925082821015611b4057611b3f611975565b5b828203905092915050565b6000604082019050611b60600083018561188c565b611b6d602083018461166f565b9392505050565b7f796f75206861766520696e73756666696369656e742045476f6c6420746f6b6560008201527f6e00000000000000000000000000000000000000000000000000000000000000602082015250565b6000611bd06021836118f8565b9150611bdb82611b74565b604082019050919050565b60006020820190508181036000830152611bff81611bc3565b9050919050565b7f4e487b7100000000000000000000000000000000000000000000000000000000600052601260045260246000fd5b6000611c408261160c565b9150611c4b8361160c565b925082611c5b57611c5a611c06565b5b828204905092915050565b7f416d6f756e742073686f756c64206e6f74206265203000000000000000000000600082015250565b6000611c9c6016836118f8565b9150611ca782611c66565b602082019050919050565b60006020820190508181036000830152611ccb81611c8f565b9050919050565b6000611cdd8261160c565b9150611ce88361160c565b9250817fffffffffffffffffffffffffffffffffffffffffffffffffffffffffffffffff0483118215151615611d2157611d20611975565b5b828202905092915050565b7f796f75206861766520696e73756666696369656e742062616c616e6365000000600082015250565b6000611d62601d836118f8565b9150611d6d82611d2c565b602082019050919050565b60006020820190508181036000830152611d9181611d55565b905091905056fea2646970667358221220ecc0930f8269d2a5f5c82abb778b7809a1b93cbcef8de2fee741e595d83e2bb564736f6c63430008080033",
  "immutableReferences": {},
  "source": "// SPDX-License-Identifier: MIT\n\npragma solidity 0.8.8;\n\nimport \"./LPToken.sol\";\nimport \"./EGoldToken.sol\";\nimport \"./EINRToken.sol\";\n//import \"hardhat/console.sol\";\n\n\nerror TransferFailed();\n\ncontract LendingPool{\n    //address of owner of this contract\n    address payable admin;\n    //instance of Lptoken\n    LPToken public lpToken;\n    //instance of EGoldToken\n    EGoldToken public eGoldToken;\n    //instance of EINRToken\n    EINRToken public eINRToken;\n    //total supply of EINR in lending pool\n    uint256 public totalSupply;\n\n    \n\n    uint256 thresholdLimitBorrow = 1500 * 10 ** 18;\n    uint256 thresholdLimitLender = 1000 * 10 ** 18;\n\n    uint public interestRateBorrower = 1000; //10% for borrower\n    uint256 public interestRateLender = 800; //8% for lender \n    uint256 public interestRateCommission = 200; //2%  application fee commission\n\n   \n    mapping(address => uint256)public balanceOfEINR;\n\n    mapping(address => uint256)public balanceOfEGold;\n\n    mapping(address => uint256)public borrowEINRAmount;\n\n    mapping(address => uint256)public depositStartTime;\n\n    mapping(address => uint256)public borrowedTime;\n\n    mapping(address =>bool) public usersKYCchecks;\n    \n    event Deposited(address indexed account, uint256 eINRamount, uint256 startDepositTime);\n    event Withdrawed(address indexed account, uint256 amount);\n    event Borrowedloan(address indexed account,uint256 amount, uint256 startBorrowTime);\n    event Repayedloan(address indexed account, uint256 amount);\n\n    constructor(address _eINRToken, address _eGoldToken, address _lpToken) {\n        admin = payable(msg.sender);\n        eINRToken = EINRToken(_eINRToken);\n        eGoldToken = EGoldToken(_eGoldToken);\n        lpToken = LPToken(_lpToken);       \n    }\n\n    function checkKYCForUsers(address account,uint256 _amount)public \n    {\n        if(_amount >thresholdLimitLender && _amount > thresholdLimitBorrow){\n            usersKYCchecks[account]= true;\n        }else{\n            usersKYCchecks[account]= false;\n        }\n    }\n\n    function depositeINRToken(uint256 _EINRamount) external{\n        checkKYCForUsers(msg.sender, _EINRamount);\n        require(_EINRamount > 0 && eINRToken.balanceOf(msg.sender) >= _EINRamount,\"You have insufficient EINR\");\n        depositStartTime[msg.sender] = block.timestamp; \n        balanceOfEINR[msg.sender] += _EINRamount;\n        totalSupply += _EINRamount;\n        \n        eINRToken.transferFrom(msg.sender, address(this), _EINRamount);\n        \n        emit Deposited(msg.sender, _EINRamount, block.timestamp);\n        //get lP token as a proof of receipt \n        lpToken.mint(msg.sender,1000 * 1e18);\n    }\n\n    function getAmountWithInterest(uint256 _EINRamount)public view returns(uint256){\n       require(_EINRamount > 0 && balanceOfEINR[msg.sender] == _EINRamount , \"Amount should not be 0\");\n       uint256 periodLock = (block.timestamp - depositStartTime[msg.sender])/ 60;\n        //console.log(periodLock, \"Get the deposit lock time here\");\n       uint256 interestGain = (((_EINRamount/1e18) * interestRateLender * periodLock )*1e5/ (365 * 24 * 60));\n      // console.log(interestGain, \"Interest Gain Per min\");\n       uint256 withdrawAmount = balanceOfEINR[msg.sender] + interestGain;\n       //console.log(withdrawAmount, \"Amount calculated for Investor with Interest\");\n       return (withdrawAmount);\n    }\n\n\n    //with 8% interest given to investor\n    function withDrawEINRToken(uint256 amountToWithdraw) external{\n        balanceOfEINR[msg.sender] = 0;\n        totalSupply -= amountToWithdraw;\n        eINRToken.transfer(msg.sender, amountToWithdraw);\n        emit Withdrawed(msg.sender, amountToWithdraw);\n        //lp token burnt after withdraw\n        lpToken.burn(msg.sender, 1000 * 1e18);\n        \n    }\n    \n    function borrowEINRLoan(uint256 _collateralAmount) external{\n        require(eGoldToken.balanceOf(msg.sender) >= _collateralAmount, \"you have insufficient EGold token\");\n        borrowedTime[msg.sender] = block.timestamp;\n        balanceOfEGold[msg.sender] += _collateralAmount;// track the amount given as collateral\n        eGoldToken.transferFrom(msg.sender, address(this), _collateralAmount); //2000 Egold token \n        uint256 EINRamount = _collateralAmount / 2; //loan borrowed is half the price of collateral\n        checkKYCForUsers(msg.sender, EINRamount);\n        totalSupply -= EINRamount;\n        eINRToken.transfer(msg.sender, EINRamount);  \n\n        borrowEINRAmount[msg.sender] += EINRamount;\n        // event emitted    \n        emit Borrowedloan(msg.sender, EINRamount, block.timestamp);\n\n    }\n\n    // function interestCalculation(uint256 _EINRamount) public view {\n    //     uint256 interestY = (((_EINRamount/10**18)* interestRateLender * 1)* 1e3 /(365 * 24 * 60));// interest for lender\n    //     console.log(interestY, \"8 % interest calculated for Lenders\");\n    //     uint256 interestX = (((_EINRamount/10**18) * interestRateCommission * 1)* 1e3 /(365 * 24 * 60 ));\n    //     console.log(interestX, \" 2% interest calculated for contract fee\");\n    //     //admin.transfer(interestX);//response\n    //     uint256 totalinterest = interestY + interestX;\n    //     console.log(totalinterest, \"check 10% here\");\n    // }\n\n\n    function getborrowerRepayAmount(uint256 _EINRamount)public view returns(uint256){\n        require(eINRToken.balanceOf(msg.sender) > _EINRamount,\"you have insufficient balance\");\n        uint256 dueTime = (block.timestamp - borrowedTime[msg.sender])/60; \n        //console.log(dueTime, \"Get the loan time here\");\n        uint256 interestToRepay = (((_EINRamount/1e18)* interestRateBorrower * dueTime)* 1e5 /(365 * 24 * 60));// interest for lender\n        uint256 repayAmount = borrowEINRAmount[msg.sender] + interestToRepay;//interest added\n        //console.log(repayAmount, \"Amount to be paid by with Interest to the contract\");\n        return (repayAmount);\n    }\n    \n    function repayEINRLoan(uint256 repayAmount)external {\n        //require(amountToRepay == totalAmountPray , \"User has insufficient Balance to repay the loan\");\n        borrowEINRAmount[msg.sender]= 0;//deduct the borrow amount from mapping borrow user mapping\n        totalSupply += repayAmount ;\n        eINRToken.transferFrom(msg.sender ,address(this), repayAmount);\n        uint256 repayCollateral = balanceOfEGold[msg.sender];\n        eGoldToken.transfer(msg.sender, repayCollateral);\n        balanceOfEGold[msg.sender]= 0;\n        //event emitted\n        emit Repayedloan(msg.sender, repayAmount);\n    }\n    \n\n    function getBalanceEINR() public view returns(uint256){\n        return(eINRToken.balanceOf(address(this)));\n    }\n}\n",
  "sourcePath": "/home/neosoft/project/Defi_lending_POC/Solidity_contracts/contracts/LendingPool.sol",
  "compiler": {
    "name": "solc",
    "version": "0.8.8+commit.dddeac2f.Emscripten.clang"
  },
  "schemaVersion": "3.4.11",
  "updatedAt": "2023-02-09T07:26:51.041Z",
  "networkType": "ethereum",
  "devdoc": {
    "kind": "dev",
    "methods": {},
    "version": 1
  },
  "userdoc": {
    "kind": "user",
    "methods": {},
    "version": 1
  }
}